:020000040800F2
:1000000000280020DD1400086D1400087314000897
:10001000791400087F14000885140008000000000F
:100020000000000000000000000000008B14000829
:100030009714000800000000A3140008AF14000883
:1000400025150008251500082515000825150008A8
:100050002515000825150008251500082515000898
:100060002515000825150008251500082515000888
:100070002515000825150008251500082515000878
:100080002515000825150008251500082515000868
:100090002515000825150008251500082515000858
:1000A0002515000825150008251500082515000848
:1000B000BD140008251500080000000025150008E3
:1000C00025150008000000000000000025150008AC
:1000D000000000002515000825150008000000009C
:1000E000251500082515000825150008000000004A
:1000F0000000000000000000000000000000000000
:0C01000000000000000000005FF808F1A3
:10010C0010B5054C237833B9044B13B10448AFF345
:10011C0000800123237010BD380000200000000077
:10012C00282B000808B5034B1BB103490348AFF358
:10013C00008008BD000000003C000020282B0008B7
:10014C0080B582B000AF01F0E9F900F0DFF800F003
:10015C0019F900F063F9644802F028F91E21002017
:10016C0001F0E8F84621012001F0E4F839210220E1
:10017C0001F0E0F80921032001F0DCF8162104203D
:10018C0001F0D8F81121052001F0D4F80B2106203C
:10019C0001F0D0F85021072001F0CCF8534B1B682C
:1001AC00012B07D16421002001F0C4F82021504814
:1001BC0001F0B6FC4D4BDB68012B17D1322103202B
:1001CC0001F0B8F84B4B1B680422934203DA494BFD
:1001DC001B68002B02DA474B00221A60454B1B6848
:1001EC005A1C44490A60184600F012FB3F4B1B692D
:1001FC00012B07D16421042001F09CF810213C480C
:10020C0001F08EFC394B5B69012B29D1642105204F
:10021C0001F090F8384B1B680133374A1360364BAA
:10022C001B683B2B07DD344B00221A60334B1B68D9
:10023C000133324A1360314B1B683B2B07DD2F4BCC
:10024C0000221A602E4B1B6801332D4A13602C4B75
:10025C001B68172B02DD2A4B00221A6000F068FB8A
:10026C00224BDB69002B1BD1204B9B69012B17D137
:10027C000121062001F05EF8224B1B6808229342F4
:10028C0003DA204B1B68002B02DA1E4B00221A608B
:10029C001C4B1B685A1C1B490A60184600F088FB53
:1002AC00124BDB69012B7FF479AF6421072001F03D
:1002BC0041F800237B6012E07B6801335A4203F063
:1002CC00070302F0070258BF53420F4AD15C0E4A93
:1002DC007B6813440A461A707B6801337B600822E2
:1002EC007B689342E8DB59E75C000020CC000020DF
:1002FC0000080140540000201800002014000020C9
:10030C0010000020580000201C00002080B590B088
:10031C0000AF07F1180328220021184602F0F6FB63
:10032C003B1D00221A605A609A60DA601A6102233F
:10033C00BB610123BB621023FB6200237B6307F1CB
:10034C001803184601F006FC0346002B01D000F000
:10035C00EBFF0F237B600023BB600023FB600023BB
:10036C003B6100237B613B1D0021184601F072FEAE
:10037C000346002B01D000F0D7FF00BF4037BD462D
:10038C0080BD000080B586B000AF07F108030022E5
:10039C001A605A609A60DA603B4600221A605A6012
:1003AC001D4B4FF080421A601B4B41F63F725A6056
:1003BC00194B00229A60184B0922DA60164B002266
:1003CC001A61154B00229A61134801F09FFF0346F6
:1003DC00002B01D000F0A8FF4FF48053BB6007F155
:1003EC00080319460C4802F01DF90346002B01D0F6
:1003FC0000F09AFF00233B6000237B603B461946CC
:10040C00054802F0F5FA0346002B01D000F08CFFF2
:10041C0000BF1837BD4680BD5C00002080B586B09B
:10042C0000AF07F1080300221A605A609A60DA6084
:10043C00224B9B69214A43F0040393611F4B9B6938
:10044C0003F004037B607B681C4B9B691B4A43F0E5
:10045C0008039361194B9B6903F008033B603B68ED
:10046C0000224FF6FC71164801F042FB00224FF6B9
:10047C007F71144801F03CFB4FF6FC73BB60012309
:10048C00FB6000233B6102237B6107F108031946E3
:10049C000B4801F0B3F94FF67F73BB600123FB608F
:1004AC0000233B6102237B6107F1080319460548D1
:1004BC0001F0A4F900BF1837BD4680BD0010024002
:1004CC0000080140000C014080B584B000AF78609A
:1004DC000023FB6005E0F86800F044FFFB68013383
:1004EC00FB60FB68092BF6DD00BF00BF1037BD4673
:1004FC0080BD000080B582B000AF78607B68092BAE
:10050C0000F2808101A252F823F000BF41050008DF
:10051C0089050008D10500081906000861060008C5
:10052C00A9060008F1060008390700088107000831
:10053C00C907000800220121B44801F0D9FA0022B1
:10054C000221B24801F0D4FA00220421AF4801F094
:10055C00CFFA00220821AD4801F0CAFA002210217E
:10056C00AA4801F0C5FA00222021A84801F0C0FADF
:10057C0001224021A54801F0BBFA43E101220121EF
:10058C00A24801F0B5FA00220221A04801F0B0FA0D
:10059C00002204219D4801F0ABFA012208219B485E
:1005AC0001F0A6FA01221021984801F0A1FA0122CB
:1005BC002021964801F09CFA01224021934801F039
:1005CC0097FA1FE100220121904801F091FA0022D4
:1005DC0002218E4801F08CFA012204218B4801F093
:1005EC0087FA00220821894801F082FA00221021A2
:1005FC00864801F07DFA01222021844801F078FA26
:10060C0000224021814801F073FAFBE00022012115
:10061C007E4801F06DFA002202217C4801F068FA54
:10062C0000220421794801F063FA0022082177485E
:10063C0001F05EFA01221021744801F059FA0122EE
:10064C002021724801F054FA002240216F4801F039
:10065C004FFAD7E0012201216C4801F049FA00223F
:10066C0002216A4801F044FA00220421674801F093
:10067C003FFA01220821654801F03AFA01221021C3
:10068C00624801F035FA00222021604801F030FA6E
:10069C00002240215D4801F02BFAB3E00022012139
:1006AC005A4801F025FA01220221584801F020FA9B
:1006BC0000220421554801F01BFA0022082153485E
:1006CC0001F016FA01221021504801F011FA002213
:1006DC0020214E4801F00CFA002240214B4801F039
:1006EC0007FA8FE000220121484801F001FA0122AB
:1006FC000221464801F0FCF900220421434801F094
:10070C00F7F900220821414801F0F2F900221021EA
:10071C003E4801F0EDF9002220213C4801F0E8F9B7
:10072C0000224021394801F0E3F96BE0002201215D
:10073C00364801F0DDF900220221344801F0D8F9E5
:10074C0000220421314801F0D3F9012208212F485D
:10075C0001F0CEF9012210212C4801F0C9F9012237
:10076C0020212A4801F0C4F901224021274801F038
:10077C00BFF947E000220121244801F0B9F9002219
:10078C000221224801F0B4F9002204211F4801F093
:10079C00AFF9002208211D4801F0AAF9002210210E
:1007AC001A4801F0A5F900222021184801F0A0F9FF
:1007BC0000224021154801F09BF923E00022012181
:1007CC00124801F095F900220221104801F090F92D
:1007DC00002204210D4801F08BF9002208210B485E
:1007EC0001F086F901221021084801F081F900225C
:1007FC002021064801F07CF900224021034801F039
:10080C0077F9FFE700BF0837BD4680BD000C0140FB
:10081C0080B582B000AF78607B68032B7AD801A2D8
:10082C0052F823F04108000879080008B1080008C4
:10083C00E9080008002240213B4801F059F9012247
:10084C008021394801F054F901224FF48071364867
:10085C0001F04EF901224FF40071334801F048F9D0
:10086C00324B1B681846FFF745FE59E00122402128
:10087C002D4801F03DF9002280212B4801F038F978
:10088C0001224FF48071284801F032F901224FF413
:10089C000071254801F02CF9244B5B681846FFF7D2
:1008AC0029FE3DE0012240211F4801F021F90122DF
:1008BC0080211D4801F01CF900224FF480711A4868
:1008CC0001F016F901224FF40071174801F010F9EC
:1008DC00164B9B681846FFF70DFE21E001224021C4
:1008EC00114801F005F9012280210F4801F000F9AF
:1008FC0001224FF480710C4801F0FAF800224FF4F9
:10090C000071094801F0F4F8084BDB681846FFF752
:10091C00F1FD05E0054B1B681846FFF7EBFD00BF2A
:10092C0000BF0837BD4680BD000801400000002014
:10093C0080B400AF1A4B1B681A4A82FB0312921048
:10094C00DB17D31A184A1360154B1968154B83FB28
:10095C0001239A10CB17D21A13469B0013445B0049
:10096C00CA1A114B5A60114B1B680E4A82FB0312B8
:10097C009210DB17D31A0C4A93600C4B1968094B75
:10098C0083FB01239A10CB17D21A13469B001344F6
:10099C005B00CA1A044BDA6000BFBD4680BC7047CE
:1009AC00100000206766666600000020140000201E
:1009BC0080B582B000AF78607B68072B00F2A6840C
:1009CC0001A252F823F000BFF5090008150B00082E
:1009DC00450C0008630D0008910E0008AF0F0008CD
:1009EC00DD100008FB110008002204218E4801F0E4
:1009FC007FF8012208218C4801F07AF801224FF48B
:100A0C008061894801F074F801224FF40061864836
:100A1C0001F06EF801224FF48051834801F068F820
:100A2C0001224FF40051804801F062F801224FF48A
:100A3C0080417D4801F05CF801224FF400417A4876
:100A4C0001F056F8794B1A78794B1B781340DBB2CE
:100A5C001A464FF48071774801F04AF8734B1A78B4
:100A6C00734B5B781340DBB21A464FF4007171483C
:100A7C0001F03EF86D4B1A786D4B9B781340DBB24E
:100A8C001A464FF480616B4801F032F8674B1A78C4
:100A9C00674BDB781340DBB21A464FF400616548B4
:100AAC0001F026F8614B1A78614B1B791340DBB2CD
:100ABC001A464FF480515F4801F01AF85B4B1A78D4
:100ACC005B4B5B791340DBB21A464FF4005159482B
:100ADC0001F00EF8554B1A78554B9B791340DBB24D
:100AEC001A464FF48041534801F002F84F4B1A78E4
:100AFC004F4BDB791340DBB21A464FF400414D48A3
:100B0C0000F0F6FF00F003BC01220421464800F07F
:100B1C00EFFF00220821444800F0EAFF01224FF4C5
:100B2C008061414800F0E4FF01224FF400613E482F
:100B3C0000F0DEFF01224FF480513B4800F0D8FF5B
:100B4C0001224FF40051384800F0D2FF01224FF43B
:100B5C008041354800F0CCFF01224FF4004132486F
:100B6C0000F0C6FF314B5A78314B1B781340DBB287
:100B7C001A464FF480712F4800F0BAFF2B4B5A786D
:100B8C002B4B5B781340DBB21A464FF400712948AB
:100B9C0000F0AEFF254B5A78254B9B781340DBB207
:100BAC001A464FF48061234800F0A2FF1F4B5A787D
:100BBC001F4BDB781340DBB21A464FF400611D4823
:100BCC0000F096FF194B5A78194B1B791340DBB286
:100BDC001A464FF48051174800F08AFF134B5A788D
:100BEC00134B5B791340DBB21A464FF4005111489A
:100BFC0000F07EFF0D4B5A780D4B9B791340DBB206
:100C0C001A464FF480410B4800F072FF074B5A789C
:100C1C00074BDB791340DBB21A464FF40041054811
:100C2C0000F066FF73E300BF000801401C000020C9
:100C3C0024000020000C0140012204218D4800F00A
:100C4C0057FF012208218B4800F052FF00224FF47D
:100C5C008061884800F04CFF01224FF40061854808
:100C6C0000F046FF01224FF48051824800F040FF13
:100C7C0001224FF400517F4800F03AFF01224FF45B
:100C8C0080417C4800F034FF01224FF40041794848
:100C9C0000F02EFF784B9A78784B1B781340DBB220
:100CAC001A464FF48071764800F022FF724B9A7806
:100CBC00724B5B781340DBB21A464FF400717048EC
:100CCC0000F016FF6C4B9A786C4B9B781340DBB2A0
:100CDC001A464FF480616A4800F00AFF664B9A7816
:100CEC00664BDB781340DBB21A464FF40061644864
:100CFC0000F0FEFE604B9A78604B1B791340DBB220
:100D0C001A464FF480515E4800F0F2FE5A4B9A7826
:100D1C005A4B5B791340DBB21A464FF400515848DA
:100D2C0000F0E6FE544B9A78544B9B791340DBB29F
:100D3C001A464FF48041524800F0DAFE4E4B9A7836
:100D4C004E4BDB791340DBB21A464FF400414C4852
:100D5C0000F0CEFEDBE201220421464800F0C8FE82
:100D6C0001220821434800F0C3FE01224FF48061A8
:100D7C00404800F0BDFE00224FF400613D4800F0F9
:100D8C00B7FE01224FF480513A4800F0B1FE012227
:100D9C004FF40051374800F0ABFE01224FF4804174
:100DAC00344800F0A5FE01224FF40041314800F018
:100DBC009FFE314BDA78314B1B781340DBB21A466D
:100DCC004FF480712E4800F093FE2B4BDA782B4BAE
:100DDC005B781340DBB21A464FF40071284800F0E0
:100DEC0087FE254BDA78254B9B781340DBB21A46ED
:100DFC004FF48061224800F07BFE1F4BDA781F4BCA
:100E0C00DB781340DBB21A464FF400611C4800F04B
:100E1C006FFE194BDA78194B1B791340DBB21A466B
:100E2C004FF48051164800F063FE134BDA78134BE5
:100E3C005B791340DBB21A464FF40051104800F0B6
:100E4C0057FE0D4BDA780D4B9B791340DBB21A46EB
:100E5C004FF480410A4800F04BFE074BDA78074B01
:100E6C00DB791340DBB21A464FF40041044800F022
:100E7C003FFE4CE2000801401C0000202400002032
:100E8C00000C0140012204218D4800F031FE0122AA
:100E9C0008218B4800F02CFE01224FF48061884819
:100EAC0000F026FE01224FF40061854800F020FE80
:100EBC0000224FF48051824800F01AFE01224FF4B8
:100ECC0000517F4800F014FE01224FF480417C4811
:100EDC0000F00EFE01224FF40041794800F008FEAC
:100EEC00784B1A79784B1B781340DBB21A464FF4C7
:100EFC008071764800F0FCFD724B1A79724B5B786E
:100F0C001340DBB21A464FF40071704800F0F0FD4C
:100F1C006C4B1A796C4B9B781340DBB21A464FF42E
:100F2C0080616A4800F0E4FD664B1A79664BDB7809
:100F3C001340DBB21A464FF40061644800F0D8FD50
:100F4C00604B1A79604B1B791340DBB21A464FF495
:100F5C0080515E4800F0CCFD5A4B1A795A4B5B79A4
:100F6C001340DBB21A464FF40051584800F0C0FD54
:100F7C00544B1A79544B9B791340DBB21A464FF4FD
:100F8C008041524800F0B4FD4E4B1A794E4BDB7940
:100F9C001340DBB21A464FF400414C4800F0A8FD58
:100FAC00B5E101220421464800F0A2FD01220821EE
:100FBC00434800F09DFD01224FF48061404800F051
:100FCC0097FD01224FF400613D4800F091FD012294
:100FDC004FF480513A4800F08BFD00224FF4005141
:100FEC00374800F085FD01224FF48041344800F071
:100FFC007FFD01224FF40041314800F079FD314B67
:10100C005A79314B1B781340DBB21A464FF480717E
:10101C002E4800F06DFD2B4B5A792B4B5B7813400F
:10102C00DBB21A464FF40071284800F061FD254BE5
:10103C005A79254B9B781340DBB21A464FF48061EA
:10104C00224800F055FD1F4B5A791F4BDB7813409B
:10105C00DBB21A464FF400611C4800F049FD194BF5
:10106C005A79194B1B791340DBB21A464FF4805155
:10107C00164800F03DFD134B5A79134B5B79134026
:10108C00DBB21A464FF40051104800F031FD0D4B05
:10109C005A790D4B9B791340DBB21A464FF48041C1
:1010AC000A4800F025FD074B5A79074BDB791340B2
:1010BC00DBB21A464FF40041044800F019FD26E15A
:1010CC00000801401C00002024000020000C0140FE
:1010DC0001220421904800F00BFD012208218E48CA
:1010EC0000F006FD01224FF480618B4800F000FDFA
:1010FC0001224FF40061884800F0FAFC01224FF401
:10110C008051854800F0F4FC01224FF400518248D4
:10111C0000F0EEFC00224FF480417F4800F0E8FC28
:10112C0001224FF400417C4800F0E2FC7B4B9A79A1
:10113C007B4B1B781340DBB21A464FF48071794815
:10114C0000F0D6FC754B9A79754B5B781340DBB28B
:10115C001A464FF40071734800F0CAFC6F4B9A7931
:10116C006F4B9B781340DBB21A464FF480616D488D
:10117C0000F0BEFC694B9A79694BDB781340DBB20B
:10118C001A464FF40061674800F0B2FC634B9A7941
:10119C00634B1B791340DBB21A464FF48051614804
:1011AC0000F0A6FC5D4B9A795D4B5B791340DBB28A
:1011BC001A464FF400515B4800F09AFC574B9A7951
:1011CC00574B9B791340DBB21A464FF4804155487C
:1011DC0000F08EFC514B9A79514BDB791340DBB20A
:1011EC001A464FF400414F4800F082FC8FE0012278
:1011FC000421494800F07CFC01220821464800F0FB
:10120C0077FC01224FF48061434800F071FC01220D
:10121C004FF40061404800F06BFC01224FF4805108
:10122C003D4800F065FC01224FF400513A4800F0B3
:10123C005FFC01224FF48041374800F059FC00223A
:10124C004FF40041344800F053FC344BDA79344B02
:10125C001B781340DBB21A464FF48071314800F012
:10126C0047FC2E4BDA792E4B5B781340DBB21A46D7
:10127C004FF400712B4800F03BFC284BDA79284BDB
:10128C009B781340DBB21A464FF48061254800F07E
:10129C002FFC224BDA79224BDB781340DBB21A4657
:1012AC004FF400611F4800F023FC1C4BDA791C4BF7
:1012BC001B791340DBB21A464FF48051194800F0E9
:1012CC0017FC164BDA79164B5B791340DBB21A46D6
:1012DC004FF40051134800F00BFC104BDA79104B13
:1012EC009B791340DBB21A464FF480410D4800F055
:1012FC00FFFB0A4BDA790A4BDB791340DBB21A4657
:10130C004FF40041074800F0F3FB00E000BF00BFC2
:10131C000837BD4680BD00BF000801401C000020FE
:10132C0024000020000C014080B400AF72B600BF56
:10133C00FEE7000080B483B000AF786039600749E5
:10134C007B683A6841F82320054A7B68002142F803
:10135C00231000BF0C37BD4680BC7047A400002092
:10136C00CC00002080B483B000AF78600F4A7B685B
:10137C0052F82330002B13DD0C4A7B6852F82330D3
:10138C005A1E0A497B6841F82320084A7B6852F8A8
:10139C002330002B04DC064A7B68012142F8231021
:1013AC0000BF0C37BD4680BC704700BFA4000020B6
:1013BC00CC00002080B485B000AF154B9B69144A5B
:1013CC0043F001039361124B9B6903F00103BB6073
:1013DC00BB680F4BDB690E4A43F08053D3610C4B57
:1013EC00DB6903F080537B607B680A4B5B68FB60B6
:1013FC00FB6823F0E063FB60FB6843F08063FB60F9
:10140C00044AFB68536000BF1437BD4680BC70476C
:10141C00001002400000014080B584B000AF78603D
:10142C007B681B68B3F1804F13D10C4BDB690B4A03
:10143C0043F00103D361094BDB6903F00103FB604B
:10144C00FB68002200211C2000F0A1F91C2000F0F8
:10145C00BAF900BF1037BD4680BD00BF0010024076
:10146C0080B400AFFEE780B400AFFEE780B400AFFD
:10147C00FEE780B400AFFEE780B400AFFEE780B4B7
:10148C0000AF00BFBD4680BC704780B400AF00BF4A
:10149C00BD4680BC704780B400AF00BFBD4680BC69
:1014AC00704780B500AF00F07FF800BF80BD000032
:1014BC0080B500AF024800F0C5FF00BF80BD00BF83
:1014CC005C00002080B400AF00BFBD4680BC7047FC
:1014DC00FFF7F8FF0B480C490C4A002302E0D458E4
:1014EC00C4500433C4188C42F9D3094A094C002364
:1014FC0001E013600432A242FBD301F0E3FAFEF7E1
:10150C001FFE704700000020380000206C2B0008E4
:10151C0038000020F8000020FEE7000080B500AF86
:10152C00084B1B68074A43F010031360032000F0BC
:10153C0023F90F2000F008F8FFF73CFF00231846B2
:10154C0080BD00BF0020024080B582B000AF786043
:10155C00124B1A68124B1B7819464FF47A73B3FB73
:10156C00F1F3B2FBF3F3184600F03BF90346002B02
:10157C0001D001230EE07B680F2B0AD8002279687A
:10158C004FF0FF3000F003F9064A7B68136000232C
:10159C0000E0012318460837BD4680BD2C00002012
:1015AC00340000203000002080B400AF054B1B78C5
:1015BC001A46054B1B681344034A136000BFBD4613
:1015CC0080BC704734000020F400002080B400AFD1
:1015DC00024B1B681846BD4680BC7047F4000020C7
:1015EC0080B485B000AF78607B6803F00703FB60C4
:1015FC000C4BDB68BB60BA684FF6FF031340BB6053
:10160C00FB681A02BB68134343F0BF6343F4003317
:10161C00BB60044ABB68D36000BF1437BD4680BCB6
:10162C00704700BF00ED00E080B400AF044BDB68F6
:10163C001B0A03F007031846BD4680BC704700BF69
:10164C0000ED00E080B483B000AF0346FB7197F966
:10165C000730002B0BDBFB7903F01F02064997F9CF
:10166C0007305B09012000FA02F241F8232000BF89
:10167C000C37BD4680BC704700E100E080B483B0FD
:10168C0000AF03463960FB7197F90730002B0ADB7A
:10169C003B68DAB20C4997F907301201D2B20B440D
:1016AC0083F800230AE03B68DAB20849FB7903F0BF
:1016BC000F03043B1201D2B20B441A7600BF0C3755
:1016CC00BD4680BC704700BF00E100E000ED00E0CB
:1016DC0080B489B000AFF860B9607A60FB6803F041
:1016EC000703FB61FB69C3F10703042B28BF042329
:1016FC00BB61FB690433062B02D9FB69033B00E099
:10170C0000237B614FF0FF32BB6902FA03F3DA432B
:10171C00BB681A407B699A404FF0FF317B6901FA34
:10172C0003F3D9437B680B40134318462437BD465B
:10173C0080BC704780B582B000AF78607B68013B9D
:10174C00B3F1807F01D301230FE00A4A7B68013B90
:10175C0053600F214FF0FF30FFF790FF054B002235
:10176C009A60044B07221A60002318460837BD46BE
:10177C0080BD00BF10E000E080B582B000AF7860A3
:10178C007868FFF72DFF00BF0837BD4680BD80B5D8
:10179C0086B000AF0346B9607A60FB7300237B61AF
:1017AC00FFF742FF78617A68B9687869FFF790FFB4
:1017BC00024697F90F3011461846FFF75FFF00BF3E
:1017CC001837BD4680BD80B582B000AF0346FB71B3
:1017DC0097F907301846FFF735FF00BF0837BD46AD
:1017EC0080BD80B582B000AF78607868FFF7A2FF4B
:1017FC00034618460837BD4680BD000080B48BB048
:10180C0000AF7860396000237B6200233B6248E1C3
:10181C0001227B6A02FA03F3FB613B681B68FA69DD
:10182C001340BB61BA69FB699A4240F037813B684F
:10183C005B68A34A93425ED0A14A934275D8A14AF1
:10184C00934258D09F4A93426FD89F4A934252D0AA
:10185C009D4A934269D89D4A93424CD09B4A9342ED
:10186C0063D89B4A934246D0994A93425DD8122B37
:10187C002AD8122B59D801A252F823F003190008C8
:10188C00DD180008EF180008311900083719000896
:10189C0037190008371900083719000837190008DC
:1018AC0037190008371900083719000837190008CC
:1018BC0037190008371900083719000837190008BC
:1018CC00E5180008F9180008824A934213D02CE05E
:1018DC003B68DB683B6229E03B68DB6804333B62B6
:1018EC0024E03B68DB6808333B621FE03B68DB6845
:1018FC000C333B621AE03B689B68002B02D104233B
:10190C003B6213E03B689B68012B05D108233B62CB
:10191C007B68FA691A6109E008233B627B68FA6903
:10192C005A6103E000233B6200E000BFBB69FF2B60
:10193C0001D87B6801E07B6804337B61BB69FF2BBA
:10194C0002D87B6A9B0002E07B6A083B9B003B61F0
:10195C007B691A680F213B6901FA03F3DB431A40D8
:10196C00396A3B6901FA03F31A437B691A603B68D5
:10197C005B6803F08053002B00F09080564B9B6902
:10198C00554A43F001039361534B9B6903F00103E8
:10199C00BB60BB68514A7B6A9B08023352F8233008
:1019AC00FB607B6A03F003039B000F2202FA03F334
:1019BC00DB43FA681340FB607B68494A93420DD0C5
:1019CC007B68484A934207D07B68474A934201D1CF
:1019DC00022304E0032302E0012300E000237A6ADF
:1019EC0002F0030292009340FA681343FB603B49F8
:1019FC007B6A9B080233FA6841F823203B685B68DA
:101A0C0003F48013002B06D0384B9A683749BB6916
:101A1C0013438B6006E0354B9A68BB69DB43334953
:101A2C0013408B603B685B6803F40013002B06D0FB
:101A3C002E4BDA682D49BB691343CB6006E02B4B68
:101A4C00DA68BB69DB4329491340CB603B685B68B0
:101A5C0003F40033002B06D0244B5A682349BB698E
:101A6C0013434B6006E0214B5A68BB69DB431F49AB
:101A7C0013404B603B685B6803F48033002B06D04B
:101A8C001A4B1A681949BB6913430B6006E0174BD4
:101A9C001A68BB69DB43154913400B607B6A013341
:101AAC007B623B681A687B6A22FA03F3002B7FF493
:101ABC00AFAE00BF00BF2C37BD4680BC704700BF27
:101ACC000000321000003110000022100000211024
:101ADC000000121000001110001002400000014024
:101AEC0000080140000C01400010014000040140BE
:101AFC0080B483B000AF78600B467B8013467B705C
:101B0C007B78002B03D07A887B681A6103E07B8892
:101B1C001A047B681A6100BF0C37BD4680BC704745
:101B2C0080B485B000AF78600B467B807B68DB6847
:101B3C00FB607A88FB6813401A04FB68D9437B88E6
:101B4C000B401A437B681A6100BF1437BD4680BC3A
:101B5C007047000080B586B000AF78607B68002BC2
:101B6C0001D101236CE27B681B6803F00103002B9D
:101B7C0000F08780924B5B6803F00C03042B0CD0B5
:101B8C008F4B5B6803F00C03082B12D18C4B5B68FA
:101B9C0003F48033B3F5803F0BD1894B1B6803F4FE
:101BAC000033002B6CD07B685B68002B68D1012361
:101BBC0046E27B685B68B3F5803F06D1804B1B68BF
:101BCC007F4A43F4803313602EE07B685B68002B04
:101BDC000CD17B4B1B687A4A23F480331360784B0F
:101BEC001B68774A23F4802313601DE07B685B68D5
:101BFC00B3F5A02F0CD1724B1B68714A43F48023B0
:101C0C0013606F4B1B686E4A43F4803313600BE018
:101C1C006B4B1B686A4A23F480331360684B1B6858
:101C2C00674A23F4802313607B685B68002B13D016
:101C3C00FFF7CCFC386108E0FFF7C8FC02463B69B3
:101C4C00D31A642B01D90323FAE15D4B1B6803F40F
:101C5C000033002BF0D014E0FFF7B8FC386108E03B
:101C6C00FFF7B4FC02463B69D31A642B01D903235A
:101C7C00E6E1534B1B6803F40033002BF0D100E07A
:101C8C0000BF7B681B6803F00203002B63D04C4B36
:101C9C005B6803F00C03002B0BD0494B5B6803F023
:101CAC000C03082B1CD1464B5B6803F48033002BD0
:101CBC0016D1434B1B6803F00203002B05D07B6845
:101CCC001B69012B01D00123BAE13D4B1B6823F0AA
:101CDC00F8027B685B69DB00394913430B603AE01F
:101CEC007B681B69002B20D0364B01221A60FFF752
:101CFC006DFC386108E0FFF769FC02463B69D31ABA
:101D0C00022B01D903239BE12D4B1B6803F002032B
:101D1C00002BF0D02A4B1B6823F0F8027B685B6920
:101D2C00DB00274913430B6015E0264B00221A6099
:101D3C00FFF74CFC386108E0FFF748FC02463B69B2
:101D4C00D31A022B01D903237AE11D4B1B6803F034
:101D5C000203002BF0D17B681B6803F00803002BF7
:101D6C003AD07B689B69002B19D0174B01221A6063
:101D7C00FFF72CFC386108E0FFF728FC02463B69B2
:101D8C00D31A022B01D903235AE10D4B5B6A03F0E2
:101D9C000203002BF0D0012000F09AFA1CE00A4B51
:101DAC0000221A60FFF712FC38610FE0FFF70EFCFF
:101DBC0002463B69D31A022B08D9032340E100BF2A
:101DCC000010024000004242800442429E4B5B6A7B
:101DDC0003F00203002BE9D17B681B6803F00403BA
:101DEC00002B00F0A6800023FB75974BDB6903F0FA
:101DFC008053002B0DD1944BDB69934A43F08053F5
:101E0C00D361914BDB6903F08053BB60BB6801234A
:101E1C00FB758E4B1B6803F48073002B18D18B4B16
:101E2C001B688A4A43F480731360FFF7CFFB386159
:101E3C0008E0FFF7CBFB02463B69D31A642B01D9B0
:101E4C000323FDE0814B1B6803F48073002BF0D05F
:101E5C007B68DB68012B06D17B4B1B6A7A4A43F00B
:101E6C00010313622DE07B68DB68002B0CD1764BF1
:101E7C001B6A754A23F001031362734B1B6A724A87
:101E8C0023F0040313621CE07B68DB68052B0CD188
:101E9C006D4B1B6A6C4A43F0040313626A4B1B6A5A
:101EAC00694A43F0010313620BE0674B1B6A664AF5
:101EBC0023F001031362644B1B6A634A23F004038F
:101ECC0013627B68DB68002B15D0FFF77FFB386152
:101EDC000AE0FFF77BFB02463B69D31A41F28832DA
:101EEC00934201D90323ABE0574B1B6A03F0020367
:101EFC00002BEED014E0FFF769FB38610AE0FFF726
:101F0C0065FB02463B69D31A41F28832934201D9F0
:101F1C00032395E04C4B1B6A03F00203002BEED11C
:101F2C00FB7D012B05D1484BDB69474A23F08053DD
:101F3C00D3617B68DB69002B00F08180424B5B68CE
:101F4C0003F00C03082B61D07B68DB69022B46D1B4
:101F5C003F4B00221A60FFF739FB386108E0FFF7AE
:101F6C0035FB02463B69D31A022B01D9032367E0E8
:101F7C00354B1B6803F00073002BF0D17B681B6A98
:101F8C00B3F5803F08D1304B5B6823F400327B689B
:101F9C009B682D4913434B602B4B5B6823F47412E5
:101FAC007B68196A7B685B6A0B43274913434B6058
:101FBC00274B01221A60FFF709FB386108E0FFF795
:101FCC0005FB02463B69D31A022B01D9032337E0E8
:101FDC001D4B1B6803F00073002BF0D02FE01C4B43
:101FEC0000221A60FFF7F2FA386108E0FFF7EEFA08
:101FFC0002463B69D31A022B01D9032320E0124B72
:10200C001B6803F00073002BF0D118E07B68DB69D0
:10201C00012B01D1012313E00B4B5B68FB60FB68C8
:10202C0003F480327B681B6A9A4206D1FB6803F486
:10203C0070127B685B6A9A4201D0012300E0002396
:10204C0018461837BD4680BD001002400070004095
:10205C006000424280B584B000AF786039607B6824
:10206C00002B01D10123D0E06A4B1B6803F007035E
:10207C003A689A4210D9674B1B6823F007026549EE
:10208C003B6813430B60634B1B6803F007033A6810
:10209C009A4201D00123B8E07B681B6803F002036D
:1020AC00002B20D07B681B6803F00403002B05D0A9
:1020BC00594B5B68584A43F4E06353607B681B6878
:1020CC0003F00803002B05D0534B5B68524A43F4D2
:1020DC0060535360504B5B6823F0F0027B689B6845
:1020EC004D4913434B607B681B6803F00103002BC5
:1020FC0040D07B685B68012B07D1474B1B6803F40E
:10210C000033002B15D101237FE07B685B68022B29
:10211C0007D1414B1B6803F00073002B09D101233D
:10212C0073E03D4B1B6803F00203002B01D101232C
:10213C006BE0394B5B6823F003027B685B683649C4
:10214C0013434B60FFF742FAF8600AE0FFF73EFAE0
:10215C000246FB68D31A41F28832934201D9032319
:10216C0053E02D4B5B6803F00C027B685B689B00B3
:10217C009A42EBD1274B1B6803F007033A689A424B
:10218C0010D2244B1B6823F0070222493B681343EF
:10219C000B60204B1B6803F007033A689A4201D08E
:1021AC00012332E07B681B6803F00403002B08D08A
:1021BC00194B5B6823F4E0627B68DB6816491343B8
:1021CC004B607B681B6803F00803002B09D0124B93
:1021DC005B6823F460527B681B69DB000E49134378
:1021EC004B6000F021F802460B4B5B681B0903F0B7
:1021FC000F030A49CB5C22FA03F3094A1360094B1B
:10220C001B681846FFF7A0F9002318461037BD4687
:10221C0080BD00BF0020024000100240402B00088F
:10222C002C0000203000002080B487B000AF0023C9
:10223C00FB600023BB6000237B6100237B600023D9
:10224C003B611E4B5B68FB60FB6803F00C03042BCB
:10225C0002D0082B03D027E0194B3B6127E0FB6829
:10226C009B0C03F00F03174AD35C7B60FB6803F4F1
:10227C008033002B10D0114B5B685B0C03F0010317
:10228C00114AD35CBB607B680D4A02FB03F2BB684E
:10229C00B2FBF3F37B6104E07B680C4A02FB03F3B3
:1022AC007B617B693B6102E0054B3B6100BF3B6995
:1022BC0018461C37BD4680BC704700BF001002405A
:1022CC0000127A00502B0008602B000800093D001A
:1022DC0080B485B000AF78600A4B1B680A4AA2FB39
:1022EC0003235B0A7A6802FB03F3FB6000BFFB6805
:1022FC005A1EFA60002BF9D100BF00BF1437BD463F
:10230C0080BC70472C000020D34D621080B582B089
:10231C0000AF78607B68002B01D1012341E07B6822
:10232C0093F83D30DBB2002B06D17B68002283F89A
:10233C003C207868FFF770F87B68022283F83D2018
:10234C007B681A687B6804331946104600F056FA0D
:10235C007B68012283F846207B68012283F83E20AB
:10236C007B68012283F83F207B68012283F84020A0
:10237C007B68012283F841207B68012283F842208C
:10238C007B68012283F843207B68012283F8442078
:10239C007B68012283F845207B68012283F83D206D
:1023AC00002318460837BD4680BD000080B485B0B8
:1023BC0000AF78607B6893F83D30DBB2012B01D025
:1023CC00012335E07B68022283F83D207B681B6883
:1023DC00DA687B681B6842F00102DA607B681B6874
:1023EC00164A934209D07B681B68B3F1804F04D026
:1023FC007B681B68124A934211D17B681B689B68EF
:10240C0003F00703FB60FB68062B10D07B681B688E
:10241C001A687B681B6842F001021A6007E07B684F
:10242C001B681A687B681B6842F001021A60002363
:10243C0018461437BD4680BC704700BF002C0140C5
:10244C000004004080B584B000AF78607B681B68E6
:10245C00DB68FB607B681B681B69BB60BB6803F0B7
:10246C000203002B20D0FB6803F00203002B1BD0CF
:10247C007B681B686FF002021A617B6801221A7775
:10248C007B681B689B6903F00303002B03D07868FF
:10249C0000F098F905E0786800F08BF9786800F0A6
:1024AC009AF97B6800221A77BB6803F00403002BAF
:1024BC0020D0FB6803F00403002B1BD07B681B6847
:1024CC006FF004021A617B6802221A777B681B6822
:1024DC009B6903F44073002B03D0786800F072F909
:1024EC0005E0786800F065F9786800F074F97B68AD
:1024FC0000221A77BB6803F00803002B20D0FB687E
:10250C0003F00803002B1BD07B681B686FF00802DC
:10251C001A617B6804221A777B681B68DB6903F0FD
:10252C000303002B03D0786800F04CF905E07868C1
:10253C0000F03FF9786800F04EF97B6800221A77BA
:10254C00BB6803F01003002B20D0FB6803F01003D2
:10255C00002B1BD07B681B686FF010021A617B6824
:10256C0008221A777B681B68DB6903F44073002B25
:10257C0003D0786800F026F905E0786800F019F9C6
:10258C00786800F028F97B6800221A77BB6803F0A2
:10259C000103002B0CD0FB6803F00103002B07D0C8
:1025AC007B681B686FF001021A617868FDF78CFF7D
:1025BC00BB6803F08003002B0CD0FB6803F0800396
:1025CC00002B07D07B681B686FF080021A6178685B
:1025DC0000F06FFABB6803F04003002B0CD0FB68D3
:1025EC0003F04003002B07D07B681B686FF04002A0
:1025FC001A61786800F0F8F8BB6803F02003002B30
:10260C000CD0FB6803F02003002B07D07B681B6801
:10261C006FF020021A61786800F042FA00BF1037A0
:10262C00BD4680BD80B584B000AF786039600023B2
:10263C00FB737B6893F83C30012B01D10223B4E08F
:10264C007B68012283F83C207B68022283F83D20C2
:10265C007B681B689B68BB60BB6823F07703BB601F
:10266C00BB6823F47F43BB607B681B68BA689A60C5
:10267C003B681B68B3F5005F3ED0B3F5005F00F21A
:10268C008780B3F5805F00F08680B3F5805F7FD8DC
:10269C00702B1AD0702B7BD8602B50D0602B77D836
:1026AC00502B3CD0502B73D8402B58D0402B6FD88C
:1026BC00302B64D0302B6BD8202B60D0202B67D8DC
:1026CC00002B5CD0102B5AD062E07B6818683B68FA
:1026DC0099683B685A683B68DB6800F06AF97B686C
:1026EC001B689B68BB60BB6843F07703BB607B686F
:1026FC001B68BA689A604FE07B6818683B689968F9
:10270C003B685A683B68DB6800F053F97B681B68D0
:10271C009A687B681B6842F480429A603CE07B6854
:10272C0018683B6859683B68DB681A4600F0CAF8C1
:10273C007B681B685021184600F021F92CE07B685F
:10274C0018683B6859683B68DB681A4600F0E8F883
:10275C007B681B686021184600F011F91CE07B684F
:10276C0018683B6859683B68DB681A4600F0AAF8A1
:10277C007B681B684021184600F001F90CE07B686F
:10278C001A683B681B681946104600F0F8F803E01D
:10279C000123FB7300E000BF7B68012283F83D201E
:1027AC007B68002283F83C20FB7B18461037BD4623
:1027BC0080BD80B483B000AF786000BF0C37BD46DD
:1027CC0080BC704780B483B000AF786000BF0C371A
:1027DC00BD4680BC704780B483B000AF786000BF4A
:1027EC000C37BD4680BC704780B483B000AF7860B6
:1027FC0000BF0C37BD4680BC7047000080B485B06C
:10280C0000AF786039607B681B68FB607B682B4A83
:10281C00934207D07B68B3F1804F03D07B68284A82
:10282C00934208D1FB6823F07003FB603B685B6844
:10283C00FA681343FB607B68204A934207D07B689D
:10284C00B3F1804F03D07B681D4A934208D1FB68DB
:10285C0023F44073FB603B68DB68FA681343FB604E
:10286C00FB6823F080023B685B691343FB607B6869
:10287C00FA681A603B689A687B68DA623B681A6887
:10288C007B689A627B680D4A934203D13B681A6954
:10289C007B681A637B6801225A617B681B6903F0B1
:1028AC000103002B05D07B681B6923F001027B68B8
:1028BC001A6100BF1437BD4680BC7047002C014024
:1028CC000004004080B487B000AFF860B9607A6053
:1028DC00FB681B6A7B61FB681B6A23F00102FB68C7
:1028EC001A62FB689B693B613B6923F0F0033B6117
:1028FC007B681B013A6913433B617B6923F00A0334
:10290C007B617A69BB6813437B61FB683A699A61A6
:10291C00FB687A691A6200BF1C37BD4680BC7047E1
:10292C0080B487B000AFF860B9607A60FB681B6A4E
:10293C007B61FB681B6A23F01002FB681A62FB6860
:10294C009B693B613B6923F470433B617B681B03D0
:10295C003A6913433B617B6923F0A0037B61BB683D
:10296C001B017A6913437B61FB683A699A61FB68C6
:10297C007A691A6200BF1C37BD4680BC704780B4B0
:10298C0085B000AF786039607B689B68FB60FB6842
:10299C0023F07003FB603A68FB68134343F00703B2
:1029AC00FB607B68FA689A6000BF1437BD4680BC38
:1029BC00704780B487B000AFF860B9607A603B6054
:1029CC00FB689B687B617B6923F47F437B613B687D
:1029DC001A027B681A43BB6813437A6913437B6101
:1029EC00FB687A699A6000BF1C37BD4680BC704793
:1029FC0080B485B000AF786039607B6893F83C3068
:102A0C00012B01D1022341E07B68012283F83C2099
:102A1C007B68022283F83D207B681B685B68FB6047
:102A2C007B681B689B68BB60FB6823F07003FB60D2
:102A3C003B681B68FA681343FB607B681B68FA6889
:102A4C005A607B681B68144A934209D07B681B68E8
:102A5C00B3F1804F04D07B681B68104A93420CD1B1
:102A6C00BB6823F08003BB603B685B68BA681343A8
:102A7C00BB607B681B68BA689A607B68012283F82C
:102A8C003D207B68002283F83C2000231846143735
:102A9C00BD4680BC704700BF002C014000040040C4
:102AAC0080B483B000AF786000BF0C37BD4680BCEB
:102ABC00704780B483B000AF786000BF0C37BD4660
:102ACC0080BC704770B500260C4D0D4C641BA410D7
:102ADC00A64209D100F022F800260A4D0A4C641BCC
:102AEC00A410A64205D170BD55F8043B9847013699
:102AFC00EEE755F8043B98470136F2E7642B0008E3
:102B0C00642B0008642B0008682B00080346024461
:102B1C00934200D1704703F8011BF9E7F8B500BFE9
:102B2C00F8BC08BC9E467047F8B500BFF8BC08BCA2
:042B3C009E467047FA
:102B4000000000000000000001020304060708095D
:102B500002030405060708090A0B0C0D0E0F1010DE
:042B6000010200006E
:042B64003101000833
:042B68000D01000853
:102B6C00010000000200000003000000040000004F
:102B7C000F0000000800000032000000FF0301CC31
:102B8C00CC0103FF010204081020408000127A00DF
:082B9C00100000000100000020
:04000005080014DDFE
:00000001FF
